:100000000C94E0000C9408010C9408010C941A055F
:100010000C941A050C941A050C9408010C94080110
:100020000C9408010C9408010C9408010C9408012C
:100030000C9408010C9408010C9408010C9408011C
:100040000C947D040C9408010C94BE0C0C94980C38
:100050000C9408010C9408010C9408010C940801FC
:100060000C94AA050C94080100000000240027004D
:100070002A0000000008000201000003040700003D
:1000800000000000000000000000250028002B00F8
:1000900000000000230026002900040404040404D6
:1000A0000404020202020202030303030303010227
:1000B00004081020408001020408102001020408F6
:1000C000102000407A10F35A00A0724E1809001058
:1000D000A5D4E80000E87648170000E40B540200BD
:1000E00000CA9A3B000000E1F505000080969800E8
:1000F000000040420F000000A08601000000102711
:1001000000000000E80300000000640000000000A0
:100110000A00000000000100000000002C76D888D2
:10012000DC674F0823DFC1DFAE59E1B1B796E5E3E5
:10013000E453C63AE651997696E8E6C28426EB89FE
:100140008C9B62ED407C6FFCEFBC9C9F40F2BAA59B
:100150006FA5F490055A2AF75C936B6CF9676DC133
:100160001BFCE0E40D47FEF520E6B500D0ED902E37
:100170000300943577050080841E080000204E0A95
:10018000000000C80C333333330F986E12831141D3
:10019000EF8D2114893BE65516CFFEE6DB18D1849E
:1001A0004B381BF77C1D901DA4BBE42420328472C5
:1001B0005E228100C9F124ECA1E53D2734144210F0
:1001C00011241FBECFEFD8E0DEBFCDBF12E0A0E00C
:1001D000B1E0E2E3F8E302C005900D92A83DB1075B
:1001E000D9F726E0A8EDB2E001C01D92AE38B20703
:1001F000E1F710E0CFEDD0E004C02197FE010E94AE
:10020000AE15CE3DD107C9F70E944C100C940C1CC2
:100210000C940000FC01918D828D981761F0828D05
:10022000DF01A80FB11D5D968C91928D9F5F9F732A
:10023000928F90E008958FEF9FEF0895FC01918DCC
:10024000828D981731F0828DE80FF11D858D90E039
:1002500008958FEF9FEF0895FC01918D228D892FD6
:1002600090E0805C9F4F821B91098F7399270895BE
:1002700080E090E0892B29F00E944E0A81110C94B5
:10028000000008953FB7F89480916403909165034E
:10029000A0916603B091670326B5A89B05C02F3FC8
:1002A00019F00196A11DB11D3FBFBA2FA92F982F9C
:1002B0008827820F911DA11DB11DBC01CD0142E017
:1002C000660F771F881F991F4A95D1F708952091CF
:1002D0006A0330916B032817390771F49091680312
:1002E00080916903981741F0E0916803F0E0E15EC6
:1002F000FC4F808190E008958FEF9FEF089508955F
:100300001F93CF93DF93DC015C962D913C915D9719
:100310002115310539F481E090E013969C938E937A
:1003200012973DC05196ED91FC91529750969C9139
:100330005097892F80951FB75E964C915E9741FB31
:10034000772770F941FD6095F8944081772311F08B
:10035000492B01C048234083E9012197F1F748E088
:10036000508160FF02C0592B01C058235083E9011E
:100370002197F1F76695415099F7772321F0908105
:100380008923808303C08081982B90831FBF5C9654
:100390008D919C915D970197F1F721E030E0C901C3
:1003A000DF91CF911F91089520916A0330916B03E3
:1003B0002817390771F4809169032091680390E050
:1003C000805C9F4F821B910960E470E00E943215AF
:1003D000089580E090E0089520916A0330916B03C6
:1003E00028173907B9F49091680380916903981729
:1003F00089F0E0916803F0E0E15EFC4F808120919C
:10040000680330E02F5F3F4F2F733327209368033B
:1004100090E008958FEF9FEF089585ED8093BC00E5
:100420008091BC0084FDFCCF109268050895409136
:10043000FA02262F30E0240F311D21323105DCF481
:10044000209168052430C9F4FC0180E090E0861713
:1004500058F43091FA022191DC01A852BD4FA30F4C
:10046000B11D2C930196F3CF8091FA02680F60932F
:10047000FA0280E0089581E0089582E008950895E9
:10048000E091210580912005E81730F4F0E0EE5D61
:10049000FA4F808190E008958FEF9FEF089590913B
:1004A000210580912005981750F4E92FF0E0EE5DCA
:1004B000FA4F208130E09F5F9093210502C02FEF1B
:1004C0003FEFC90108958091200590E0209121051A
:1004D000821B91090895CF92DF92EF92FF920F93C2
:1004E0001F93CF93DF937C01262F972F8A01809152
:1004F0006905882391F0C62FD72F6E01C40ED51E33
:10050000CC15DD0571F06991D701ED91FC91019059
:10051000F081E02DC7010995F3CF642F822F0E944F
:100520001702C801DF91CF911F910F91FF90EF90BB
:10053000DF90CF900895CF93DF931F92CDB7DEB7B2
:100540006983209169052223D1F020918C05203206
:1005500040F021E030E0FC013383228380E090E032
:1005600015C080916A05E82FF0E0E559FA4F9981AE
:1005700090838F5F80936A0580938C0505C061E04E
:10058000CE0101960E94170281E090E00F90DF916A
:10059000CF9108950E943319FC01848DDF01A80FCB
:1005A000B11DA35ABF4F2C91848D90E001968F739B
:1005B0009927848FA689B7892C93A089B1898C91BA
:1005C00080648C93938D848D981306C00288F38980
:1005D000E02D80818F7D80830895EF92FF920F93AD
:1005E0001F93CF93DF93EC0181E0888F9B8D8C8DDF
:1005F000981305C0E889F989808185FD24C0F62E0D
:100600000B8D10E00F5F1F4F0F731127E02E8C8DA5
:10061000E8120CC00FB607FCFACFE889F98980818F
:1006200085FFF5CFCE010E94CC02F1CF8B8DFE016C
:10063000E80FF11DE35AFF4FF0820B8FEA89FB8927
:100640008081806207C0EE89FF896083E889F9892B
:1006500080818064808381E090E0DF91CF911F9161
:100660000F91FF90EF900895CF93DF93EC01888D69
:100670008823C9F0EA89FB89808185FD05C0A889A6
:10068000B9898C9186FD0FC00FB607FCF5CF80812C
:1006900085FFF2CFA889B9898C9185FFEDCFCE0176
:1006A0000E94CC02E7CFDF91CF910895833081F093
:1006B00028F4813099F08230A1F008958730A9F0B4
:1006C0008830B9F08430D1F4809180008F7D03C0F0
:1006D000809180008F7780938000089584B58F7714
:1006E00002C084B58F7D84BD08958091B0008F775E
:1006F00003C08091B0008F7D8093B00008951F9358
:10070000CF93DF93282F30E0F901EE58FF4F84910B
:10071000F901E255FF4FD491F901E656FF4FC4911C
:10072000CC23C9F0162F81110E945603EC2FF0E064
:10073000EE0FFF1FEA57FF4FA591B4918FB7F894C2
:10074000111105C09C91ED2FE095E92302C0EC91B9
:10075000ED2BEC938FBFDF91CF911F910895CF9335
:10076000DF9390E0FC01E255FF4F2491FC01E65637
:10077000FF4F8491882361F190E0880F991FFC015D
:10078000E859FF4FC591D491FC01EA57FF4FA5915D
:10079000B491611109C09FB7F89488812095822394
:1007A0008883EC912E230BC0623061F49FB7F894DC
:1007B0003881822F809583238883EC912E2B2C9374
:1007C0009FBF06C08FB7F894E8812E2B28838FBF78
:1007D000DF91CF9108958F929F92AF92BF92CF9267
:1007E000DF92EF92FF926B017C010E9442014B016C
:1007F0005C01C114D104E104F104F1F00E94420152
:10080000DC01CB0188199909AA09BB09883E9340EC
:10081000A105B10570F321E0C21AD108E108F10881
:1008200088EE880E83E0981EA11CB11CC114D1046F
:10083000E104F10419F7DDCFFF90EF90DF90CF9046
:10084000BF90AF909F908F900895CF92DF92EF92DC
:10085000FF920F931F93CF9392EF980F8E3008F073
:10086000892F8770C82FC06409E110E0C12CD12CFA
:100870007601C0937C0080917A00806480937A0036
:1008800080917A0086FDFCCF8091780020917900DC
:1008900090E0922BBC01990F880B990B0E94DF16F8
:1008A0009B01AC01C701B6010E94C4156B017C011C
:1008B00061E070E080E090E00E94EB0301501109DC
:1008C000C1F620E030E048EC51E4C701B6010E94D7
:1008D0003516CF911F910F91FF90EF90DF90CF9041
:1008E00008952FB7F894609160037091610380912F
:1008F0006203909163032FBF08951F920F920FB66A
:100900000F9211242F933F938F939F93AF93BF9395
:100910008091600390916103A0916203B0916303A1
:1009200030915F0323E0230F2D3720F40196A11DA2
:10093000B11D05C026E8230F0296A11DB11D20930D
:100940005F038093600390936103A0936203B0936D
:1009500063038091640390916503A0916603B09155
:1009600067030196A11DB11D8093640390936503F5
:10097000A0936603B0936703BF91AF919F918F914E
:100980003F912F910F900FBE0F901F901895FC0173
:10099000248131E03093690520938B0510926A051C
:1009A00010928C058385682B8AE296E00E949B0258
:1009B0000C94390D0F931F93CF938C01C62F0E9477
:1009C000C7046C2F6460C8010E94C7046C2F6B7F42
:1009D000C8010E94C70483EC90E00197F1F7CF9122
:1009E0001F910F910895FF920F931F93CF93DF9361
:1009F0001F92CDB7DEB78C01F62E962F907F692F10
:100A0000642BC80149830E94DA0480E1F89EB0019A
:100A100011244981642BC8010F90DF91CF911F9160
:100A20000F91FF900C94DA0441E00E94F30481E0FE
:100A300090E008951F920F920FB60F9211242F93FA
:100A40003F934F935F936F937F938F939F93AF9356
:100A5000BF93EF93FF93E0916A03F0916B0330979C
:100A600009F451C0968DA685B785858591FF04C090
:100A70009C91892329F447C09C91892309F043C0A4
:100A8000A389B4899C918589809589238C938689D3
:100A900097890197F1F7608D718DA685B78555858A
:100AA00038E020E0CB010197F1F7822F90E0959597
:100AB0008795282F4C91452309F02068315091F7F4
:100AC000868D81FD20958091690390E001968F735A
:100AD000992730916803381749F0A0916903B0E075
:100AE000A15EBC4F2C938093690303C0868D816007
:100AF000868F828D938D0197F1F7A389B4899C919C
:100B00008589892B8C93FF91EF91BF91AF919F9134
:100B10008F917F916F915F914F913F912F910F90A6
:100B20000FBE0F901F901895E0916A03F0916B0330
:100B3000E817F90769F4A389B4899C9185898095A0
:100B400089238C9310926B0310926A0381E00895BD
:100B500080E008951F920F920FB60F9211242F93E9
:100B60003F934F935F936F937F938F939F93AF9335
:100B7000BF93EF93FF938091B900887F803609F48B
:100B80009CC068F5883209F45BC090F4803109F4A8
:100B900054C038F4882309F4F6C0883009F44DC0F5
:100BA000F6C0883109F44CC0803209F45DC0EFC052
:100BB000803409F468C048F4803309F455C08833A0
:100BC00009F0E5C080936605D8C0803509F44FC0B0
:100BD000883509F45DC0883409F0D9C0D6C0883999
:100BE00009F4C7C0A8F4883709F467C038F4883618
:100BF00009F463C0803709F460C0C9C0883809F4BB
:100C0000B8C0803909F45FC0803809F0C0C05BC04B
:100C1000803B09F486C038F4803A09F466C0883A0B
:100C200009F47FC0B4C0803C09F4A7C0883C09F433
:100C3000A4C0883B09F48AC0AAC08091430510C0B3
:100C40009091650580916405981770F5E0916505B0
:100C500081E08E0F80936505F0E0EC5BFA4F8081B8
:100C60008093BB0085EC86C0809366058EC0E091C2
:100C7000650581E08E0F809365058091BB00F0E0F3
:100C8000EC5BFA4F808390916505809164056EC09E
:100C9000E091650581E08E0F809365058091BB0032
:100CA000F0E0EC5BFA4F80838091670581116DC0A5
:100CB00081E08093420584EA61C083E08093680507
:100CC00010921E03CFCF80911E03803208F051C0D6
:100CD000E0911E0381E08E0F80931E038091BB0084
:100CE000F0E0E250FD4F8083BDCF85EC8093BC00E7
:100CF0001092680580911E03803230F4E0911E034B
:100D0000F0E0E250FD4F108260911E0370E0E09130
:100D1000FC02F091FD028EEF92E0099510921E0305
:100D200036C084E0809368051092FB021092FA02AC
:100D3000E091F802F091F90209958091FA0281118F
:100D400005C081E08093FA021092D802E091FB0284
:100D500081E08E0F8093FB02F0E0E852FD4F80812E
:100D60008093BB009091FB028091FA02981708F4DF
:100D700079CF85E88093BC000AC085EC8093BC00E5
:100D80001092680504C0109266050E940D02FF9142
:100D9000EF91BF91AF919F918F917F916F915F91F3
:100DA0004F913F912F910F900FBE0F901F9018956C
:100DB0001092680581E0809367051092420561E01A
:100DC00082E10E947F0361E083E10E947F03E9EBFF
:100DD000F0E080818E7F808380818D7F808388E4B6
:100DE0008093B80085E48093BC0008951F93CF934F
:100DF000DF93EB01FB0101900020E9F73197E61B3F
:100E0000F70BF0933504E0933404BC018CE693E0D7
:100E10000E944A1940913404509135044F5F5F4F4E
:100E2000BE0180ED93E00E94381910913C0480913E
:100E3000380490913904DC01ED91FC910190F0812E
:100E4000E02D66E009958091380490913904DC0129
:100E5000ED91FC910190F081E02D65E8099580917C
:100E6000380490913904DC01ED91FC910190F081FE
:100E7000E02D60913C040995C0E0D0E020913C0455
:100E800030E08091380490913904C217D3078CF474
:100E9000E0913A04F0913B04EC0FFD1F60811627AE
:100EA000DC01ED91FC910190F081E02D09952196F6
:100EB000E5CFDC01ED91FC910190F081E02D612FF7
:100EC000DF91CF911F910994EF92FF920F931F939F
:100ED000CF93DF93CDB7DEB72A970FB6F894DEBF76
:100EE0000FBECDBF7C01CB01BA018E010F5F1F4F3A
:100EF00022E044E00E945119B801C7010E94F606A1
:100F00002A960FB6F894DEBF0FBECDBFDF91CF910A
:100F10001F910F91FF90EF9008950F931F93CF9320
:100F2000DF9300D01F92CDB7DEB78C01CB014AE032
:100F3000BE016F5F7F4F0E947119BE016F5F7F4FCF
:100F4000C8010E94F6060F900F900F90DF91CF918D
:100F50001F910F9108958F929F92AF92BF92CF925F
:100F6000DF92EF92FF920F931F93CF9340E060E8E0
:100F700086E396E00E94F3040E94580A882309F44D
:100F800041C080915F068B3029F0E0F185518230BD
:100F900058F038C060915B0670E080E090E00E94FD
:100FA000DD166B017C0134C0C0915B066C2F6F773E
:100FB00070E080E090E00E94DF1620E030E040E842
:100FC00053E40E9494176B017C0180915C06682FAA
:100FD00070E080E090E00E94DF169B01AC01C70149
:100FE000B6010E94C4152DEC3CEC4CEC5DE30E9474
:100FF00094176B017C01C7FF0BC0F7FAF094F7F868
:10100000F09406C0C12CD12C50ECE52E5FE7F52EF4
:101010000E94580A882309F44DC080915F068B30E6
:1010200041F188F18551823070F56091590670E088
:1010300080E090E00E94DD1620E030E040E853E4DC
:101040000E9494174B015C0180915A06682F70E052
:1010500080E090E00E94DF169B01AC01C501B40165
:101060000E94C4152DEC3CEC4CEC5DE30E949417FF
:1010700007C06091590670E080E090E00E94DD16A4
:101080004B015C0106C0812C912C40ECA42E4FE753
:10109000B42EA5019401C501B4010E94011881116B
:1010A00009C0A7019601C701B6010E940118882353
:1010B00009F461C18CEF91E00E94E10F67E671E0F5
:1010C0008DE895E00E94960C0E94050EAC0160E050
:1010D00070E080915706909158069A01AB01281B49
:1010E000390B41095109A0915506B09156060E944D
:1010F00087156B017C018FE0F594E794D794C79432
:101100008A95D1F760914F0670915006CB01770F09
:10111000AA0BBB0BBC01CD012BE0660F771F881F0C
:10112000991F2A95D1F720915106309152068901D5
:10113000330F220B330BA90198012C0D3D1D4E1DC1
:101140005F1D0E946815D701C601820F931FA41F5F
:10115000B51F0896A11DB11DBC01CD0134E09595C8
:101160008795779567953A95D1F70E94DF1620E02D
:1011700030E040E251E40E943516AB01BC0122E0B0
:101180008DE895E00E94B40B86E791E00E94E10FA4
:101190000E94110E8AE791E00E948D076EE871E0CF
:1011A0008DE895E00E94960C0E94110E6B017C0167
:1011B00097FF0EC06DE28DE895E00E944F0B44272B
:1011C0005527BA014C195D096E097F092AE003C051
:1011D0002AE0AB01BC018DE895E00E946B0B8AE927
:1011E00091E00E94E10F0E94110E8EE991E00E94B1
:1011F0008D0788EC80937C0080917A0080688093D2
:101200007A0064E170E080E090E00E94EB0380915E
:101210007A00806480937A0080917A0086FDFCCF0A
:10122000609178007091790080E090E00E94DD1676
:101230002EEA37E242EA53E40E94C31526EF38E271
:101240004CE95FE30E9435160E94A7168EEA91E0F2
:101250000E948D078EE090E00E9425040E94A71650
:10126000072E000C880B990B0E94DF1620E030E05F
:1012700040EA5BE30E94941720E030E040EA50E44B
:101280000E9494176B017C016DEB71E08DE895E095
:101290000E94960C22E0B701A6018DE895E00E941D
:1012A000B40B69EC71E08DE895E00E94560BB70134
:1012B000A6018CEC91E00E94640722E0B701A60130
:1012C00086E396E00E94B40B62EE71E086E396E05E
:1012D0000E94960C84E190E00E9425040E94A716CB
:1012E000072E000C880B990B0E94DF1620E030E0DF
:1012F00040EA5BE30E94941720E030E040E250E4D3
:101300000E94C31522E03BE247E85DE30E943516E8
:101310006B017C0165EE71E08DE895E00E94960C12
:1013200022E0B701A6018DE895E00E94B40B69ECBC
:1013300071E08DE895E00E94560BB701A6018CEE96
:1013400091E00E94640722E0B701A60186E396E0DF
:101350000E94B40B69EF71E086E396E0CF911F9194
:101360000F91FF90EF90DF90CF90BF90AF909F9044
:101370008F900C94960C6CE172E08DE895E00E94E1
:10138000960C22E0B501A4018DE895E00E94B40B13
:10139000B501A40187E292E00E94640767E372E06E
:1013A0008DE895E00E94960C6BE372E08DE895E085
:1013B0000E94960C22E0B701A6018DE895E00E94FC
:1013C000B40BC701B6010E94A7164B01770FAA08FC
:1013D000BB08B7FE0EC06DE286E396E00E944F0B9D
:1013E00044275527BA01481959096A097B092AE097
:1013F00003C02AE0B501A40186E396E00E946B0BCE
:1014000064E671E086E396E00E94960CB701A601BF
:101410008EE491E00E94640782E691E04DCE61E0A7
:1014200083E00E947F0360EA72E089E492E00C941A
:10143000F60660E082E00E947F0366E972E087E5DD
:1014400092E00C94F606CF92DF92EF92FF920F9308
:101450001F93CF93DF936C017A018B01C0E0D0E042
:10146000CE15DF0589F0D8016D918D01D601ED9182
:10147000FC910190F081E02DC6010995892B11F4B2
:101480007E0102C02196ECCFC701DF91CF911F9161
:101490000F91FF90EF90DF90CF9008958DE895E049
:1014A0000E942C0121E0892B09F420E0822F08956D
:1014B000CF92DF92EF92FF920F931F93CF93DF9320
:1014C000CDB7DEB7C054D1400FB6F894DEBF0FBE23
:1014D000CDBF0E94710400916206109163062091B5
:1014E0006406309165066B017C01C01AD10AE20ADC
:1014F000F30A40EDC41647E0D406E104F10418F401
:1015000080916A06BCC06093620670936306809304
:1015100064069093650610925D0610925C06109228
:101520005B0610925A061092590661E080915E06A1
:101530000E947F036AEF70E080E090E00E94EB037E
:1015400061E080915E060E94AF0360E080915E06DC
:101550000E947F0364E170E080E090E00E94EB0372
:10156000F89461E080915E060E947F038BE990E031
:101570000197F1F762E080915E060E94AF0383E27B
:1015800090E00197F1F780E00E94F40F672B682B41
:10159000692B21F410926A0678943EC081E00E9483
:1015A000F40F672B682B692BA9F38E010F5F1F4F78
:1015B0006E018FEBC81A8EEFD80A780180E00E9486
:1015C000F40FF701608371838283938381E00E942B
:1015D000F40FF7016483758386839783F8E0EF0E39
:1015E000F11CEC14FD0451F7789420E030E0F80190
:1015F0004081518162817381C480D580E680F7800B
:10160000411551056105710529F0C114D104E104AA
:10161000F10421F410926A0680E031C0F90183E000
:10162000F595E7958A95E1F7E75AF94F8081880F9C
:101630004C155D056E057F0508F4816080832F5F82
:101640003F4F085F1F4F2832310589F620915D0614
:1016500030E04091590680915A0690E0840F911D28
:1016600040915B06840F911D40915C06840F911D93
:1016700099272817390771F681E080936A06C05CC4
:10168000DE4F0FB6F894DEBF0FBECDBFDF91CF9116
:101690001F910F91FF90EF90DF90CF900895DC01A4
:1016A000ED91FC910190F081E02D09946115710597
:1016B00079F0FB0101900020E9F73197AF01461B5B
:1016C000570BDC01ED91FC910280F381E02D099430
:1016D00080E090E008954F925F926F927F92EF9238
:1016E000FF920F931F93CF93DF93CDB7DEB7A197F0
:1016F0000FB6F894DEBF0FBECDBF7C01FA01CB015F
:1017000019A2223008F42AE08E010F5D1F4F422EED
:10171000512C612C712CBF01A30192010E9446152E
:10172000F901CA01015011096A3014F4605D01C069
:10173000695CD8016C93232B242B252B61F7B8010E
:10174000C7010E94560BA1960FB6F894DEBF0FBEDC
:10175000CDBFDF91CF911F910F91FF90EF907F90C0
:101760006F905F904F9008954F925F926F927F922B
:101770008F929F92AF92BF92CF92DF92EF92FF92A1
:10178000CF93DF93EC016A017B01B22E9A01AB018A
:10179000C701B6010E940118882319F065E672E0BE
:1017A00027C026013701E89477F82FEF3FEF4FE786
:1017B0005FE7C301B2010E94011881110DC02FEF34
:1017C0003FEF4FE75FE7C301B2010E9430161816E2
:1017D0001CF469E672E00CC02FEF3FEF4FE75FE4C7
:1017E000C701B6010E948F1718169CF46DE672E0CF
:1017F000CE01DF91CF91FF90EF90DF90CF90BF901F
:10180000AF909F908F907F906F905F904F900C94CF
:10181000560B2FEF3FEF4FE75FECC701B6010E9479
:10182000301687FDE3CF20E030E0A901C701B60103
:101830000E94301687FF0AC06DE2CE010E944F0B56
:101840004C01F7FAF094F7F8F09402C0812C912C37
:10185000A12C60E070E080E09FE3AB1441F020E059
:1018600030E040E251E40E943516A394F6CF9B018C
:10187000AC01C701B6010E94C4152B013C010E94B6
:10188000AE166B017C010E94DD169B01AC01C30109
:10189000B2010E94C3152B013C012AE0B701A60149
:1018A000CE010E946B0B7C01E80CF91CBB2031F0CF
:1018B0006EE2CE010E944F0BE80EF91EDB2CDD20FC
:1018C00029F120E030E040E251E4C301B2010E947E
:1018D00094172B013C010E94AE164B01A12CB12C98
:1018E0002AE0B501A401CE010E946B0BE80EF91E9F
:1018F000C501B4010E94DD169B01AC01C301B20118
:101900000E94C3152B013C01DA94D9CFC701DF91A6
:10191000CF91FF90EF90DF90CF90BF90AF909F90CE
:101920008F907F906F905F904F9008950C94560B1E
:101930001F920F920FB60F9211242F933F934F9344
:101940005F936F937F938F939F93AF93BF93EF9327
:10195000FF938DE895E00E94CC02FF91EF91BF913B
:10196000AF919F918F917F916F915F914F913F9137
:101970002F910F900FBE0F901F9018951F920F92EE
:101980000FB60F9211242F938F939F93EF93FF9392
:10199000E0919D05F0919E058081E091A305F09175
:1019A000A40582FD12C090818091A6058F5F8F7380
:1019B0002091A705821751F0E091A605F0E0E357CA
:1019C000FA4F958F8093A60501C08081FF91EF911A
:1019D0009F918F912F910F900FBE0F901F90189590
:1019E000909168059111FCCF813208F080E291E07E
:1019F00090936805909367052FEF209366051092EA
:101A00006505280F20936405909343059091430545
:101A10009E6E9093430590914205913061F410922F
:101A20004205909143059093BB009091BC0093FDBB
:101A3000F8CF95EC01C095EE9093BC0090916805AD
:101A40009130E1F390916505981710F48091650548
:101A5000A4E4B5E022E235E0F9019E2F921B98172D
:101A600018F49D919193F9CF109221058093200550
:101A7000089520918C0590918B05213208F04AC081
:101A8000809168058111FCCF32E03093680531E028
:101A9000309367053FEF30936605109265052093FC
:101AA0006405ABE6B5E044E455E0FA013E2F341B93
:101AB000321718F43D913193F9CF109243052091DC
:101AC0004305990F922B90934305909142059130D5
:101AD00061F410924205909143059093BB00909160
:101AE000BC0093FDF8CF95EC01C095EE9093BC003F
:101AF000909168059230E1F3909166059F3F79F0EF
:101B000080916605803241F080916605803331F026
:101B100084E005C081E003C082E001C083E0109250
:101B20006A0510928C05109269050895CF93C82F0D
:101B300081E08093690587E780938B0510926A05A1
:101B400010928C0564EF8AE296E00E949B026C2F53
:101B50008AE296E00E949B02CF910C94390DCF93BC
:101B6000C1E0C093690597E790938B0510926A05D1
:101B700010928C05682F8AE296E00E949B020E94D8
:101B8000390DC093690510926A0510928C0581E0A9
:101B900090E00E94F00C8AE296E00E944F02C82F6B
:101BA0000E94390D8C2FCF910895CF93DF93C1E020
:101BB000C093690597E790938B0510926A05109280
:101BC0008C05682F8AE296E00E949B020E94390DE4
:101BD000C093690510926A0510928C0582E090E02E
:101BE0000E94F00C8AE296E00E944F02D82F80E01B
:101BF000C82F8AE296E00E944F02C82BD92B0E9480
:101C0000390DCE01DF91CF9108958EE20E94960D9D
:101C100065E070E080E090E00E94EB0386EF0C94BA
:101C2000D50D3F924F925F926F927F928F929F92CB
:101C3000AF92BF92CF92DF92EF92FF920F931F93DA
:101C4000CF93DF93CDB7DEB728970FB6F894DEBFFA
:101C50000FBECDBF0E94050E6C01E12CF12C8091CE
:101C600042068295880F880F807C8C5C0E94960DBE
:101C700080914206811105C065E070E080E090E04F
:101C800012C0813029F468E070E080E090E00BC081
:101C9000823029F46EE070E080E090E004C06AE1F8
:101CA00070E080E090E00E94EB0386EF0E94D50D8B
:101CB0004C01A12CB12CBA2CA92C982C882488EF8B
:101CC0000E94AF0D882A309042068091570690916D
:101CD0005806A7019601281B390B41095109A0910B
:101CE0005506B09156060E9487156B017C01AFE046
:101CF000F594E794D794C794AA95D1F760914F06CD
:101D000070915006CB01770FAA0BBB0BBC01CD0124
:101D1000BBE0660F771F881F991FBA95D1F72091F6
:101D20005106309152068901330F220B330BA90162
:101D300098012C0D3D1D4E1D5F1D0E946815C20EA1
:101D4000D31EE41EF51E20EAC21A2FE0D20AE108D3
:101D5000F108A7019601C701B6010E9422159B0157
:101D6000AC011CE055954795379527951A95D1F705
:101D700029833A834B835C83009143061091440688
:101D8000A0914706B0914806A70196010E949215BE
:101D90002B013C018DE075946794579447948A9584
:101DA000D1F7A0914906B0914A0629813A814B8129
:101DB0005C810E949215BB2797FDB095AB2F840DD7
:101DC000951DA61DB71D0296A11DB11D32E0B5954A
:101DD000A795979587953A95D1F79C01AD01305815
:101DE0004F4F5F4FA0915306B09154060E94871544
:101DF0002B013C014FE076946794579447944A95A1
:101E0000D1F788E090E083199109A501940104C0FD
:101E100056954795379527958A95D2F72D833E831A
:101E20004F8358874801110FAA08BB0852E0880C5D
:101E3000991CAA1CBB1C5A95D1F7A0914B06B091D6
:101E40004C0629813A814B815C810E9492159B014D
:101E5000AC016BE055954795379527956A95D1F775
:101E600029833A834B835C83A0914506B091460653
:101E7000A70196010E949215DC01CB017BE0B5958C
:101E8000A795979587957A95D1F729813A814B81C6
:101E90005C81820F931FA41FB51F880D991DAA1D79
:101EA000BB1D032C04C0880F991FAA1FBB1F0A94D7
:101EB000D2F7BC01CD016E5F7F4F8F4F9F4F24E063
:101EC00030E040E050E00E9468158D819E81AF8136
:101ED000B885821B930BA40BB50B9C01AD0180E56B
:101EE00093ECA0E0B0E0BC01CD0104C096958795CD
:101EF000779567953A94D2F70E94221597FD0BC00B
:101F0000660F771F881F991FA30192010E94461533
:101F100069017A010AC0A30192010E944615690174
:101F20007A01CC0CDD1CEE1CFF1C9927F7FC9A955E
:101F30008F2D7E2D6D2D9B01AC010E9422159B01E2
:101F4000AC01AEEDBBE00E9487154C01BB2497FCB1
:101F5000B094AB2CA3E4B3EEA70196010E949515B3
:101F6000BB2797FDB095AB2F880D991DAA1DBB1DF2
:101F70008153914FAF4FBF4F44E0B595A7959795CB
:101F800087954A95D1F7BC01CD016C0D7D1D8E1D45
:101F90009F1D28960FB6F894DEBF0FBECDBFDF9110
:101FA000CF911F910F91FF90EF90DF90CF90BF9056
:101FB000AF909F908F907F906F905F904F903F90E9
:101FC0000895CF93DF93BC018DE895E00E94560BF6
:101FD000EC0169EC71E08DE895E00E94560B8C0FE6
:101FE0009D1FDF91CF9108958F929F92AF92BF92E4
:101FF000CF92DF92EF92FF92CF93DF93A091600692
:10200000882311F03A2F01C030E08091610690E002
:10201000880F991F80579F4FC0906606D090670623
:10202000E0906806F090690640E050E0BA01FC01DB
:10203000C591D49128812A2323130FC04A015B0143
:102040002FEF821A920AA20AB20A4C155D056E059C
:102050007F0538F4B501A401EACF342F252FCB0139
:1020600004C030E020E080E090E0632F722FDF9129
:10207000CF91FF90EF90DF90CF90BF90AF909F9067
:102080008F9008958AE391E090936C0680936B069D
:102090008BE696E00C949405789484B5826084BDB8
:1020A00084B5816084BD85B5826085BD85B581605C
:1020B00085BD80916E00816080936E0010928100DA
:1020C0008091810082608093810080918100816095
:1020D0008093810080918000816080938000809156
:1020E000B10084608093B1008091B00081608093E2
:1020F000B00080917A00846080937A0080917A00A9
:10210000826080937A0080917A00816080937A0067
:1021100080917A00806880937A001092C10061E01B
:1021200082E00E94AF0361E083E00E94AF0360E0C1
:102130008BE00E94AF03E0919D05F0919E0582E047
:102140008083E0919905F0919A051082E0919B05BA
:10215000F0919C058FEC80831092A505E091A1057C
:10216000F091A20586E08083E0919F05F091A005A3
:10217000808180618083E0919F05F091A00580813E
:1021800088608083E0919F05F091A0058081806840
:102190008083E0919F05F091A00580818F7D8083F1
:1021A000109286061092850610928406109283067D
:1021B00010928206109281068DE991E09093880634
:1021C0008093870690917706963108F057C02DEBE3
:1021D00030E030938206209381062BE931E0309382
:1021E0008406209383062CE231E030938606209308
:1021F000850620916800983050F031E09E3008F458
:1022000030E081E001C0880F3A95EAF701C084E030
:10221000822B80936800983038F09E3040F09631E1
:1022200048F020E030E008C02DE630E005C02BE6A5
:1022300030E002C02CE630E030937F0620937E062B
:10224000983030F481E001C0880F9A95EAF70EC00B
:10225000292F30E09E3018F42850310902C02E504A
:10226000310981E001C0880F2A95EAF78093800642
:1022700080918706909188060197F1F780918506F5
:1022800090918606892B21F180916A0390916B03CE
:1022900026E08B369207E1F0009711F00E9494053A
:1022A000809189068E7F809389061092690310922F
:1022B00068038BE696E090936B0380936A03E0914A
:1022C0007E06F0917F06908180918006892B808325
:1022D0008AE494E090931905809318051CEC109300
:1022E0001A05CBE6D6E0D0931705C09316058CEC03
:1022F00090E00E94061890931C0580931B058CE6C5
:1023000093E090933B0480933A0410933C04D09361
:102310003904C09338048CEC90E00E940618909326
:102320003E0480933D040E94190A0E940F0A62E055
:1023300080915E060E94AF0380E398EFAFEFBFEF9E
:102340008093620690936306A0936406B09365063B
:1023500083E080934206109221051092200510928E
:102360006A0510928C050E94D80680ED0E94AF0D80
:10237000853509F0D9C18AEA0E94D50D90934406AB
:10238000809343068CEA0E94D50D90934606809375
:1023900045068EEA0E94D50D909348068093470625
:1023A00080EB0E94D50D909354068093530682EBE8
:1023B0000E94D50D909356068093550684EB0E949B
:1023C000D50D909358068093570686EB0E94D50D45
:1023D00090934A068093490688EB0E94D50D90930E
:1023E0004C0680934B068AEB0E94D50D90934E06C7
:1023F00080934D068CEB0E94D50D909350068093F0
:102400004F068EEB0E94D50D909352068093510695
:10241000109221051092200510926A0510928C05E9
:102420000E94D80610923B0680914006823018F038
:1024300098E090933B0680933E0662E370E080E074
:1024400090E00E94EB036091410686E396E00E94D3
:10245000C70468EE73E080E090E00E94EB0360E365
:1024600086E396E00E94DA04CBE4D6E4CE0101973D
:10247000F1F760E386E396E00E94DA042197F1F732
:1024800060E386E396E00E94DA0483E592E0019738
:10249000F1F760E286E396E00E94DA0460913B0681
:1024A000606240E086E396E00E94F30484E080935B
:1024B0003C0640E06CE086E396E00E94F30440E0D6
:1024C00061E086E396E00E94F304CBE3DFE1CE0116
:1024D0000197F1F782E080933D0640E066E086E3F5
:1024E00096E00E94F30440E062E086E396E00E94FA
:1024F000F3042197F1F788E08093410660E086E3DA
:1025000096E00E94C70440E060E486E396E00E9403
:10251000F304C0E0D1E0699186E396E00E941405DF
:1025200081E0C830D807B9F740E061E086E396E083
:102530000E94F3048BE39FE10197F1F761E772E0FA
:1025400086E396E00E94960C61E772E089E792E0EC
:102550000E94F6060E94AB07CDE7D0E009EB10E041
:1025600035EAE32E30E0F32E48E0C42E80911E05BC
:10257000811145C08091160590911705DC01ED9100
:10258000FC910480F581E02D09950397C4F18091B9
:10259000160590911705DC01ED91FC910680F781FD
:1025A000E02D0995A0911605B0911705ED91FC91CC
:1025B0001197069741F00480F581E02DCD01099532
:1025C00003972CF759C00680F781E02DCD010995BE
:1025D00085389105A1F48091160590911705DC01CD
:1025E000ED91FC910680F781E02D099580931E0501
:1025F00090911A05891719F010921E053DC080911F
:102600001E058823C9F18091160590911705DC01FC
:10261000ED91FC910480F581E02D099530911E0526
:1026200020911D05892B09F484C0321708F481C05C
:10263000A0901B05B0901C0581E0820F80931D05C2
:10264000A20EB11C8091160590911705DC01ED9149
:10265000FC910680F781E02D0995F5018083D3CFA9
:10266000860F971FFC0131978081281709F481C0DC
:1026700010921E0510921D050E9471048090460460
:1026800090904704A0904804B0904904DC01CB012D
:1026900088199909AA09BB09893E9340A105B1058A
:1026A00008F0C0C00E947104681579058A059B0571
:1026B00008F4B8C00E9471048090420490904304D2
:1026C000A0904404B0904504DC01CB01881999091D
:1026D000AA09BB0989399A43A105B10508F0ADC023
:1026E0000E947104681579058A059B0508F4A5C048
:1026F000FE018491F801B490F701D490DD2009F433
:10270000A9C081110E9456038D2D90E0880F991F5A
:1027100080579F4FFC01A591B4918C91B82209F488
:1027200099C0C092410698C084EA92E00E94E10FED
:102730006FCEE32FF0E0822F90E0AC0141505109C1
:10274000E417F50709F098CF30931F0560911B053A
:1027500070911C05DB0120911F05AD01461B570B35
:102760004E175F070CF07CCF3D91232720931F0568
:10277000F2CF40911A0550E080911805909119050B
:102780000E94381910921E0510921D0560E872E033
:102790008AE494E00E944119892B11F40E94AB074E
:1027A0006EE572E08AE494E00E944119892BD9F425
:1027B00086E892E00E94E10F8091AE04813329F413
:1027C0000E94190A8FE892E00CC061E082E00E944A
:1027D0007F0360EA72E087E592E00E94F60689E9ED
:1027E00092E00E94E10F60E572E08AE494E00E94CA
:1027F0004119892B09F040CF86E892E00E94E10F51
:102800008091AE04813359F460E083E00E947F033D
:1028100066E972E089E492E00E94F6062DCF0E94FC
:102820000F0A2ACF0E9471046093460470934704F4
:1028300080934804909349043DCF0E94AB070E94C7
:102840007104609342047093430480934404909312
:1028500045044ECF1092410660E086E396E00E9468
:10286000C7040E94380182CE1092900510928F0505
:1028700088EE93E0A0E0B0E08093910590939205FC
:10288000A0939305B093940522E131E030938E0537
:1028900020938D0525EC30E030939A05209399051F
:1028A00024EC30E030939C0520939B0520EC30E035
:1028B00030939E0520939D0521EC30E03093A005D8
:1028C00020939F0522EC30E03093A2052093A105D0
:1028D00026EC30E03093A4052093A3051092A605C2
:1028E0001092A7051092A8051092A90510922D0626
:1028F00010922C0680932E0690932F06A0933006FC
:10290000B093310622E231E030932B0620932A0661
:1029100010926E0610926D0680936F06909370066B
:10292000A0937106B09372068AE391E090936C06CF
:1029300080936B0610928206109281061092840694
:1029400010928306109286061092850610928806D1
:1029500010928706609189066E7F6D7F609389066D
:102960006695617081E0682788E00E947F0361E0DE
:1029700088E00E94AF03E6EBF0E0E491E0937B0691
:10298000E2EAF0E0E491F0E0EE0FFF1FEA57FF4FBC
:102990008591949190937D0680937C0660E089E018
:1029A0000E94AF038091890681FD04C061E089E047
:1029B0000E947F0389E080937706E7EBF0E0E491E3
:1029C000E0937806E3EAF0E0E491F0E0EE0FFF1F19
:1029D000E057FF4F8591949190937A068093790602
:1029E00087E080935E068BE080935F06E5EBF0E086
:1029F000E491E0936006E1EAF0E0E491E09361069F
:102A000080E89EE3A0E0B0E08093660690936706BE
:102A1000A0936806B09369061092390610923806A2
:102A200082E391E0909337068093360687E28093A5
:102A30003A0680E180933F0682E080934006109240
:102A400041060895DB018F939F930E948715BF91E4
:102A5000AF91A29F800D911DA39F900DB29F900DED
:102A60001124089597FB072E16F4009407D077FDE4
:102A700009D00E949A1507FC05D03EF490958195E7
:102A80009F4F0895709561957F4F0895A1E21A2E8A
:102A9000AA1BBB1BFD010DC0AA1FBB1FEE1FFF1F02
:102AA000A217B307E407F50720F0A21BB30BE40B52
:102AB000F50B661F771F881F991F1A9469F7609599
:102AC0007095809590959B01AC01BD01CF01089553
:102AD000052E97FB1EF400940E947F1557FD07D02A
:102AE0000E94461507FC03D04EF40C947F155095B8
:102AF0004095309521953F4F4F4F5F4F08959095EA
:102B00008095709561957F4F8F4F9F4F08950E94DC
:102B1000B415A59F900DB49F900DA49F800D911D9D
:102B200011240895B7FF0C9487150E948715821B06
:102B3000930B0895AA1BBB1B51E107C0AA1FBB1F23
:102B4000A617B70710F0A61BB70B881F991F5A9539
:102B5000A9F780959095BC01CD010895EE0FFF1F58
:102B60000590F491E02D0994A29FB001B39FC0019C
:102B7000A39F700D811D1124911DB29F700D811DA9
:102B80001124911D08955058BB27AA270E94DB15D8
:102B90000C9455170E94471738F00E944E1720F0EA
:102BA00039F49F3F19F426F40C9444170EF4E09581
:102BB000E7FB0C943E17E92F0E94661758F3BA17EB
:102BC000620773078407950720F079F4A6F50C9443
:102BD00088170EF4E0950B2EBA2FA02D0B01B9012A
:102BE00090010C01CA01A0011124FF27591B99F083
:102BF000593F50F4503E68F11A16F040A22F232F8F
:102C0000342F4427585FF3CF469537952795A795DE
:102C1000F0405395C9F77EF41F16BA0B620B730B85
:102C2000840BBAF09150A1F0FF0FBB1F661F771FF6
:102C3000881FC2F70EC0BA0F621F731F841F48F4AB
:102C4000879577956795B795F7959E3F08F0B0CF34
:102C50009395880F08F09927EE0F9795879508951B
:102C60000E941A1708F481E008950E9449160C94F6
:102C700055170E944E1758F00E94471740F029F44C
:102C80005F3F29F00C943E1751110C9489170C9456
:102C900044170E94661768F39923B1F3552391F303
:102CA000951B550BBB27AA2762177307840738F0BB
:102CB0009F5F5F4F220F331F441FAA1FA9F335D018
:102CC0000E2E3AF0E0E832D091505040E695001CCC
:102CD000CAF72BD0FE2F29D0660F771F881FBB1F86
:102CE000261737074807AB07B0E809F0BB0B802D64
:102CF000BF01FF2793585F4F3AF09E3F510578F090
:102D00000C943E170C9489175F3FE4F3983ED4F37C
:102D1000869577956795B795F7959F5FC9F7880F63
:102D2000911D9695879597F90895E1E0660F771FB5
:102D3000881FBB1F621773078407BA0720F0621B46
:102D4000730B840BBA0BEE1F88F7E09508950E9471
:102D5000AE166894B1110C94891708950E946E17ED
:102D600088F09F5798F0B92F9927B751B0F0E1F04C
:102D7000660F771F881F991F1AF0BA95C9F714C0FC
:102D8000B13091F00E948817B1E008950C94881733
:102D9000672F782F8827B85F39F0B93FCCF3869535
:102DA00077956795B395D9F73EF490958095709592
:102DB00061957F4F8F4F9F4F0895E89409C097FB0F
:102DC0003EF490958095709561957F4F8F4F9F4F02
:102DD0009923A9F0F92F96E9BB279395F695879546
:102DE00077956795B795F111F8CFFAF4BB0F11F409
:102DF00060FF1BC06F5F7F4F8F4F9F4F16C08823B0
:102E000011F096E911C0772321F09EE8872F762FE5
:102E100005C0662371F096E8862F70E060E02AF026
:102E20009A95660F771F881FDAF7880F9695879512
:102E300097F90895990F0008550FAA0BE0E8FEEFE7
:102E400016161706E807F907C0F012161306E4076E
:102E5000F50798F0621B730B840B950B39F40A2667
:102E600061F0232B242B252B21F408950A2609F445
:102E7000A140A6958FEF811D811D089597F99F6749
:102E800080E870E060E008959FEF80EC08950024F2
:102E90000A941616170618060906089500240A94BF
:102EA00012161306140605060895092E0394000C45
:102EB00011F4882352F0BB0F40F4BF2B11F460FFD4
:102EC00004C06F5F7F4F8F4F9F4F089557FD9058FD
:102ED000440F551F59F05F3F71F04795880F97FBDE
:102EE000991F61F09F3F79F0879508951216130698
:102EF0001406551FF2CF4695F1DF08C016161706C7
:102F00001806991FF1CF86957105610508940895FB
:102F1000E894BB2766277727CB0197F908950E948D
:102F20001A1708F48FEF08950E94A7170C945517ED
:102F30000E94471738F00E944E1720F0952311F099
:102F40000C943E170C94441711240C9489170E947A
:102F5000661770F3959FC1F3950F50E0551F629F60
:102F6000F001729FBB27F00DB11D639FAA27F00DE2
:102F7000B11DAA1F649F6627B00DA11D661F829F09
:102F80002227B00DA11D621F739FB00DA11D621FEE
:102F9000839FA00D611D221F749F3327A00D611D0B
:102FA000231F849F600D211D822F762F6A2F1124ED
:102FB0009F5750409AF0F1F088234AF0EE0FFF1F20
:102FC000BB1F661F771F881F91505040A9F79E3F77
:102FD000510580F00C943E170C9489175F3FE4F381
:102FE000983ED4F3869577956795B795F795E795CD
:102FF0009F5FC1F7FE2B880F911D9695879597F9D6
:1030000008950E941A17880B990B0895CF93DF93A8
:103010008230910510F482E090E0E0918C06F0910E
:103020008D0620E030E0C0E0D0E0309711F1408123
:10303000518148175907C0F04817590761F4828138
:103040009381209719F09B838A832BC090938D06E0
:1030500080938C0626C02115310519F042175307BD
:1030600018F49A01BE01DF01EF010280F381E02D27
:10307000DCCF2115310509F1281B390B243031052E
:1030800090F412968D919C9113976115710521F022
:10309000FB019383828304C090938D0680938C06FA
:1030A000FD01329644C0FD01E20FF31F819391931D
:1030B000225031092D933C933AC020918A063091D9
:1030C0008B06232B41F420910A0130910B013093A0
:1030D0008B0620938A062091080130910901211561
:1030E000310541F42DB73EB740910C0150910D01CF
:1030F000241B350BE0918A06F0918B06E217F3074B
:10310000A0F42E1B3F0B2817390778F0AC014E5F57
:103110005F4F2417350748F04E0F5F1F50938B0603
:1031200040938A068193919302C0E0E0F0E0CF01E2
:10313000DF91CF9108950F931F93CF93DF93009763
:1031400009F48CC0FC0132971382128200918C0624
:1031500010918D060115110581F420813181820FB6
:10316000931F20918A0630918B062817390779F52D
:10317000F0938B06E0938A0671C0D80140E050E0DE
:10318000AE17BF0750F412962D913C911397AD01E5
:103190002115310509F1D901F3CF9D01DA013383FE
:1031A000228360817181860F971F8217930769F4CC
:1031B000EC0128813981260F371F2E5F3F4F318365
:1031C00020838A819B8193838283452B29F4F0930A
:1031D0008D06E0938C0642C01396FC93EE931297F3
:1031E000ED01499159919E01240F351FE217F30714
:1031F00071F480819181840F951F029611969C93A2
:103200008E938281938113969C938E931297E0E024
:10321000F0E0D80112968D919C911397009719F0C8
:10322000F8018C01F6CF8D919C9198012E5F3F4F54
:10323000820F931F20918A0630918B062817390739
:1032400069F4309729F410928D0610928C0602C012
:103250001382128210938B0600938A06DF91CF911E
:103260001F910F91089581E090E0F8940C940C1C4C
:10327000FB01DC0102C001900D9241505040D8F793
:103280000895FB01DC018D91019080190110D9F3A3
:10329000990B0895FB01DC0101900D920020E1F7EC
:1032A0000895EF920F931F93CF93DF93E80147FDAB
:1032B00002C034E001C034E1E42F440FFF0BF7FFFC
:1032C00003C0F195E195F109E32E022F2E2FAE01F7
:1032D0000E949619CE01DF91CF911F910F91EF902F
:1032E0000895BB274A3031F4992322F4BDE290952A
:1032F00081959F4F0C947D19BB27FB015527AA2769
:10330000880F991FAA1FA41710F0A41B8395505172
:10331000B9F7A05DAA3308F0A95DA193009779F7EA
:10332000B111B1931192CB010C94FC1B4F925F929F
:103330006F927F929F92AF92BF92CF92DF92EF9265
:10334000FF920F931F93CF93DF93CDB7DEB72997EB
:103350000FB6F894DEBF0FBECDBF6A01122FB02E9C
:103360002BE3201720F0FF24F394F00E02C0BCE3FF
:10337000FB2E0F2D27E0AE014F5F5F4F0E94241BF5
:10338000AC018981982F9970913031F0E1FC06C031
:10339000E0FE06C090E205C09DE203C09BE201C0D2
:1033A00090E0EE2DE07183FF3CC0911102C083E0FC
:1033B00001C084E0811718F4212F281B01C020E0F0
:1033C000E1110BC0F601822F30E2882319F031930E
:1033D0008150FBCFC20ED11C20E0992329F0D601E9
:1033E0009C93F60131966F01C6010396E2FE0AC076
:1033F0003EE4D6013C9341E411964C93119712960A
:103400003C9306C03EE6F601308341E641833283B9
:10341000FC01322F40E2332309F442C04193315082
:10342000FACF82FF44C0911102C083E001C084E062
:10343000811718F4212F281B01C020E0E1110BC0D7
:10344000F601822F30E2882319F031938150FBCFAF
:10345000C20ED11C20E0992329F0D6019C93F601DD
:1034600031966F01C6010396E2FE0BC039E4D60126
:103470003C933EE411963C93119736E412963C93AC
:1034800007C039E6F60130833EE6318336E6328303
:10349000FC01322F40E2332319F041933150FBCF2E
:1034A000FC01E20FF11D10828EEF9FEFB7C0F1E03B
:1034B000911101C0F0E06F2F70E01416150624F48E
:1034C0009A012F5F3F4F02C021E030E0260F371FE7
:1034D000BB2029F06B2D70E06F5F7F4F02C060E072
:1034E00070E0260F371F612F70E0261737071CF496
:1034F000121B212F01C020E03E2D387159F4D60156
:10350000322F60E2332319F06D933150FBCFC20E9E
:10351000D11C20E0FF2331F0D6019C93B6016F5FF0
:103520007F4F6B01E1110BC0F601922F30E399231D
:1035300019F031939150FBCFC20ED11C20E09F2D8A
:10354000940F3A81782F7071A72E84FF03C0313316
:1035500009F49150191624F4993018F098E001C03C
:1035600091E0E42F852F57FF02C0E0E080E06E2F4E
:10357000782FE0E0F0E0AEE29A2E3A01691A710885
:103580002A01461A570A0B2D10E0119501951109D1
:103590006F3F8FEF780729F4D6019C92C601019600
:1035A0006C014617570784F0661677066CF47F01A6
:1035B000E40CF51CA1E0B0E0AC0FBD1FEA0EFB1E51
:1035C000D7011196BC9002C090E3B92E61507109E9
:1035D0003196C60101967C016017710724F0D6016F
:1035E000BC926C01D5CF6417750741F4363320F4D3
:1035F000353321F4A11002C081E3B82EF601B08268
:10360000F701822F90E2882319F091938150FBCF2C
:10361000F701E20FF11D108280E090E029960FB6CD
:10362000F894DEBF0FBECDBFDF91CF911F910F91F8
:10363000FF90EF90DF90CF90BF90AF909F907F90E2
:103640006F905F904F900895283008F027E033275F
:10365000DA01990F311D87FD9160009661057105B2
:1036600039F432602E5F3D9330E32A95E1F70895F7
:103670009F3F30F080387105610509F03C5F3C5F89
:103680003D93913008F08068911DDF93CF931F9395
:103690000F93FF92EF92192F987F9695E92F9695A9
:1036A0009695E90FFF27E45EFE4F99273327EE2416
:1036B000FF24A701E70105900894079428F4360F2A
:1036C000E71EF81E491F511D660F771F881F991F9F
:1036D0000694A1F70590079428F4E70EF81E491FF9
:1036E000561FC11D770F881F991F661F0694A1F7EB
:1036F0000590079428F4F80E491F561FC71FD11DC7
:10370000880F991F661F771F0694A1F705900794ED
:1037100020F4490F561FC71FD81F990F661F771F28
:10372000881F0694A9F784911095177041F0D695DB
:10373000C79557954795F794E7941A95C1F7E2EC2A
:10374000F0E06894159015913591659195910590EB
:103750007FE27395E118F10A430B560BC90BD009B0
:10376000C0F7E10CF11E431F561FC91FD01D7EF488
:10377000703311F48A95E6CFE894015030F0080FC9
:103780000AF40027021708F4202F2395022F7A331A
:1037900028F079E37D932A95E9F710C07D932A9567
:1037A00089F6069497956795379517951794E118BC
:1037B000F10A430B560BC90BD00998F023957E9163
:1037C00073957A3308F070E37C932013B8F77E91F9
:1037D00070617D9330F0839571E37D9370E32A955A
:1037E000E1F71124EF90FF900F911F91CF91DF919E
:1037F000992787FD90950895DC01FC01672F719151
:103800007723E1F7329704C07C916D9370836291C6
:10381000AE17BF07C8F3089510E0CFEDD0E004C0A5
:10382000FE010E94AE152196C03ED107C9F7F8945B
:02383000FFCFC8
:103832000100030007000F1F00008E068000000039
:103842000000ED02230A2C010A011E0134030000CC
:1038520000009B026B0263024F0240023F02000023
:1038620000001405230A000000008001230AD4018D
:10387200EC0167017F0100000000CA02230A737491
:10388200617475732F74656D70657261747572659C
:103892003000202A43200054656D70657261747592
:1038A2007265203D2000202A430073746174757391
:1038B2002F74656D70657261747572653100507236
:1038C200657373757265203D20002050610073742A
:1038D200617475732F70726573737572650073749A
:1038E200617475732F696E7474656D7000496E2012
:1038F200566F6C7461676520000D0A007374617401
:1039020075732F62617474657279766F6C74616716
:103912006500562000416D706572200073746174F9
:1039220075732F616D706572004120004661696C8C
:10393200656420746F20726561642066726F6D2009
:103942004448542073656E736F72210048756D6927
:10395200646974793A20007374617475732F6875A1
:103962006D6964697479002025090054656D70657C
:103972007261747572653A20007374617475732F85
:1039820072656C617932007374617475732F72653C
:103992006C617931006E616E00696E66006F7666E9
:1039A20000537461727465640053746174757300BA
:1039B2007374617274006368616E67696E67007226
:1039C200656C617931204F4E0072656C61793120EE
:1039D2004F464600436F756C64206E6F74206669B3
:1039E2006E6420612076616C696420424D503038EB
:1039F200352073656E736F722C20636865636B206C
:083A0200776972696E6721000B
:00000001FF
